S013000050726F6A656374436F64652E73726563BF
S11300000C942B000C948F030C94B2030C94D50322
S11300100C9453000C9453000C9453000C94530010
S11300200C9453000C9453000C9453000C94530000
S11300300C9453000C9453000C9453000C945300F0
S11300400C9453000C9453000C9453000C945300E0
S11300500C945300211011241FBECFE5D8E0DEBF5D
S1130060CDBF10E0A0E6B0E0E2E0F8E202C0059007
S11300700D92A63BB107D9F721E0A6EBB0E001C091
S11300801D92A432B207E1F710E0CBE2D0E004C045
S11300902197FE010E945010CA32D107C9F70E946D
S11300A0A80F0C94FF130C940000019709F046C0AC
S11300B06F3F7F4F09F042C0EDEEF0E081E0808BAE
S11300C0858B828F8483858325E030E03783268384
S11300D03187208713861286158E148E138E809393
S11300E0EC0084E090E0EFECF0E08F3F2FEF92071C
S11300F029F021E0248335960197F7CF81E080939E
S1130100CE008093C90085E0E9EFF0E0A0ECB0E018
S113011001900D928A95E1F785E0EEEFF0E0ABEB0C
S1130120B0E001900D928A95E1F785E0E3E0F1E01B
S1130130A6EBB0E001900D928A95E1F70895672B44
S113014009F0DFC0009721F48BB38E7F8BBB089539
S11301508130910521F48BB38D7F8BBB0895823060
S1130160910521F48BB38B7F8BBB0895833091056C
S113017021F48BB3877F8BBB08958430910521F4E0
S11301808BB38F7E8BBB08958530910521F48BB39F
S11301908F7D8BBB08958630910521F48BB38F7BC3
S11301A08BBB08958730910521F48BB38F778BBB7C
S11301B008958A30910521F488B38E7F88BB089511
S11301C08B30910521F488B38D7F88BB08958C30E2
S11301D0910521F488B38B7F88BB08958D309105F8
S11301E021F488B3877F88BB08958E30910521F46C
S11301F088B38F7E88BB08958F30910521F488B32E
S11302008F7D88BB08958031910521F488B38F7B5D
S113021088BB08958131910521F488B38F7788BB19
S113022008958431910521F485B38E7F85BB0895AB
S11302308531910521F485B38D7F85BB0895863181
S1130240910521F485B38B7F85BB08958731910592
S113025021F485B3877F85BB08958831910521F406
S113026085B38F7E85BB08958931910521F485B3CB
S11302708F7D85BB08958A31910521F485B38F7BE9
S113028085BB08958B31910521F485B38F7785BBA8
S113029008958E31910521F482B38E7F82BB089537
S11302A08F31910521F482B38D7F82BB0895803212
S11302B0910521F482B38B7F82BB0895813291052D
S11302C021F482B3877F82BB08958232910521F4A1
S11302D082B38F7E82BB08958332910521F482B369
S11302E08F7D82BB08958432910521F482B38F7B84
S11302F082BB0895859709F0E1C082B38F7782BBF2
S11303000895009721F48BB381608BBB08958130ED
S1130310910521F48BB382608BBB089582309105E3
S113032021F48BB384608BBB08958330910521F451
S11303308BB388608BBB08958430910521F48BB313
S113034080618BBB08958530910521F48BB3806265
S11303508BBB08958630910521F48BB380648BBBED
S113036008958730910521F48BB380688BBB089581
S11303708A30910521F488B3816088BB08958B305D
S1130380910521F488B3826088BB08958C3091056F
S113039021F488B3846088BB08958D30910521F4DD
S11303A088B3886088BB08958E30910521F488B3A2
S11303B0806188BB08958F30910521F488B38062F1
S11303C088BB08958031910521F488B3806488BB8B
S11303D008958131910521F488B3806888BB08951C
S11303E08431910521F485B3816085BB08958531FD
S11303F0910521F485B3826085BB0895863191050A
S113040021F485B3846085BB08958731910521F477
S113041085B3886085BB08958831910521F485B33F
S1130420806185BB08958931910521F485B380628B
S113043085BB08958A31910521F485B3806485BB19
S113044008958B31910521F485B3806885BB0895A7
S11304508E31910521F482B3816082BB08958F317E
S1130460910521F482B3826082BB089580329105A4
S113047021F482B3846082BB08958132910521F412
S113048082B3886082BB08958232910521F482B3DD
S1130490806182BB08958332910521F482B3806226
S11304A082BB08958432910521F482B3806482BBB7
S11304B00895859719F482B3806882BB0895CF9319
S11304C0C82F80FF07C061E070E082E290E00E94E4
S11304D09F0006C060E070E082E290E00E949F000E
S11304E0C1FF07C061E070E083E290E00E949F00DA
S11304F006C060E070E083E290E00E949F00C2FFCB
S113050007C061E070E084E290E00E949F0006C0B2
S113051060E070E084E290E00E949F00C3FF07C0A7
S113052061E070E085E290E00E949F0006C060E018
S113053070E085E290E00E949F00CF910895CF93F0
S1130540C82F60E070E08AE190E00E949F008C2F49
S11305500E945F0261E070E08BE190E00E949F00E6
S113056089EF90E00197F1F700C0000060E070E0CF
S11305708BE190E00E949F0089EF90E00197F1F7F2
S113058000C00000CF91089580E00E949F0281E0A6
S11305900E949F020895CF93813099F480E8860FDA
S11305A090E09595879595958795959587959595DB
S11305B08795C62FCF700E949F028C2F0E949F02A6
S11305C014C0823091F480EC860F90E09595879565
S11305D0959587959595879595958795C62FCF7011
S11305E00E949F028C2F0E949F02CF91089580E069
S11305F00E945F0287E893E10197F1F700C00000D1
S113060083E00E949F0281EE94E00197F1F700C01D
S1130610000083E00E949F028DEB9AE00197F1F7BE
S113062000C0000083E00E949F0282E00E949F02BB
S113063082E00E949F0288E00E949F0280E00E9464
S11306409F028CE00E949F0280E00E949F0286E04D
S11306500E949F020895CF93DF93D82FDF70C82F95
S1130660C07F61E070E08AE190E00E949F008C2FDF
S113067090E095958795959587959595879595950A
S113068087950E945F0261E070E08BE190E00E9438
S11306909F0089EF90E00197F1F700C0000060E04F
S11306A070E08BE190E00E949F0089EF90E0019759
S11306B0F1F700C000008D2F0E945F0261E070E03E
S11306C08BE190E00E949F0089EF90E00197F1F7A1
S11306D000C0000060E070E08BE190E00E949F00A9
S11306E089EF90E00197F1F700C00000DF91CF910E
S11306F008950F931F93CF93DF938C01C0E0D0E054
S1130700F801EC0FFD1F8081882321F00E942B0348
S11307102196F6CFDF91CF911F910F9108951F92EB
S11307200F920FB60F9211248F939F93EF93FF9321
S11307308091F100882369F0EDEEF0E081E085839B
S113074082819381019793838283029711F410929B
S1130750F100FF91EF919F918F910F900FBE0F9039
S11307601F9018951F920F920FB60F9211248F931A
S11307709F93EF93FF938091F200882369F0EDEE4D
S1130780F0E081E084838281938101969383828364
S11307900F9711F41092F200FF91EF919F918F91B6
S11307A00F900FBE0F901F9018951F920F920FB6C7
S11307B00F9211242F933F938F939F93EF93FF9363
S11307C08091080181110FC0EDEEF0E022813381A8
S11307D0808191810397958784873787268781E075
S11307E0808B838F25C08091090181110FC0EDEEAC
S11307F0F0E022813381808191810397928B818BF8
S1130800348B238B81E0858B848F12C080910A0105
S113081081110EC0EDEEF0E022813381808191815F
S11308200397978B868B318F208F81E0828F858F02
S1130830FF91EF919F918F913F912F910F900FBE58
S11308400F901F9018958FEF8ABB87BB84BB81BB29
S1130850EDEEF0E080E190E09183808388E090E029
S11308609383828380E090E0853091053CF5009786
S113087061F4FC01EE0FFF1FEE0FFF1FE80FF91FDD
S1130880E153FF4F21E024830AC0FC01EE0FFF1F58
S1130890EE0FFF1FE80FF91FE153FF4F1482FC0115
S11308A0EE0FFF1FEE0FFF1FE80FF91FE153FF4F7D
S11308B021E030E0318320830196D6CFEAECF0E0EA
S11308C0148281E090E09183808310922101109240
S11308D020010895FB01EB55FF4F208189309105DC
S11308E054F4693071053CF4FC01E357FF4F8081F7
S11308F080930B0126C08930910554F0693071054D
S11309003CF4FC01EB56FF4F808180930B0119C02E
S11309108930910554F0693071053CF0FC01E357CE
S1130920FF4F808180930B010CC0893091054CF4FA
S11309306930710534F0FC01EB57FF4F80818093DF
S11309400B012BBB80910B0188BB0895CF93DF93E0
S1130950CDEED0E06A817B818881998102970E94E3
S11309606A0483EF91E00197F1F700C000006A8107
S11309707B81615071098881998101970E946A0481
S113098083EF91E00197F1F700C000006A817B8159
S11309908881998101970E946A0483EF91E001970D
S11309A0F1F700C000006A817B816F5F7F4F88810F
S11309B0998101970E946A0483EF91E00197F1F70E
S11309C000C000006A817B8161507109888199812E
S11309D00E946A0483EF91E00197F1F700C00000E0
S11309E06A817B81888199810E946A0483EF91E006
S11309F00197F1F700C000006A817B816F5F7F4F30
S1130A00888199810E946A0483EF91E00197F1F74C
S1130A1000C00000DF91CF91089580912201909150
S1130A202301823091052CF4019690932301809345
S1130A30220180912201909123018130910591F44A
S1130A4081E090E0833091050CF5FC01EE0FFF1F6F
S1130A50EE0FFF1FE80FF91FE153FF4F21E024833E
S1130A600196F0CF029791F483E090E085309105F0
S1130A706CF4FC01EE0FFF1FEE0FFF1FE80FF91FD0
S1130A80E153FF4F21E024830196F0CF0895809134
S1130A90CE00882389F08091CA009091CB00019701
S1130AA059F40E94A21061E170E00E94281001969E
S1130AB09093CD008093CC000895CF93DF938091E1
S1130AC0220190912301009799F48091CF00909195
S1130AD0D000019709F05EC00E94A21061E170E0AD
S1130AE00E94281001969093D2008093D10052C0A6
S1130AF08130910539F5C0E0D0E0C330D1050CF068
S1130B0049C0FE01EE0FFF1FEE0FFF1FEC0FFD1F8C
S1130B10E153FF4F80819181019791F40E94A210CB
S1130B2061E170E00E9428100196FE01EE0FFF1FA4
S1130B30EE0FFF1FEC0FFD1FE153FF4F93838283E2
S1130B402196DBCF029731F5C0E0D0E0C530D10566
S1130B500CF5FE01EE0FFF1FEE0FFF1FEC0FFD1F44
S1130B60E153FF4F80819181019791F40E94A2107B
S1130B7061E170E00E9428100196FE01EE0FFF1F54
S1130B80EE0FFF1FEC0FFD1FE153FF4F9383828392
S1130B902196DCCF8091CA009091CB00019759F443
S1130BA00E94A21061E170E00E94281001969093C7
S1130BB0CD008093CC00DF91CF910895CF93DF9344
S1130BC08091CE00882309F446C0CAECD0E06A8143
S1130BD07B81888199810E946A0489EF90E0019762
S1130BE0F1F700C000006A817B816150710988813E
S1130BF0998101960E946A0489EF90E00197F1F7C8
S1130C0000C000006A817B818881998101960E94DD
S1130C106A0489EF90E00197F1F700C000006A814F
S1130C207B816F5F7F4F8881998101960E946A045E
S1130C3089EF90E00197F1F700C000006A817B81A1
S1130C408881998102960E946A0489EF90E0019755
S1130C50F1F700C00000DF91CF910895CF93DF93A7
S1130C608091220190912301009779F4EFECF0E058
S1130C7062817381808191810E946A048DEE92E089
S1130C800197F1F700C000003DC081309105E1F407
S1130C90C0E0D0E0C330D105ACF5FE01EE0FFF1F7C
S1130CA0EE0FFF1FEC0FFD1FE153FF4F62817381B5
S1130CB0808191810E946A0489EF90E00197F1F7A5
S1130CC000C000002196E6CF0297E1F4C0E0D0E036
S1130CD0C530D105BCF4FE01EE0FFF1FEE0FFF1F60
S1130CE0EC0FFD1FE153FF4F62817381808191817D
S1130CF00E946A0489EF90E00197F1F700C00000B8
S1130D002196E6CFDF91CF910895FC014081518176
S1130D10FB0120813181F90134974E175F0761F49B
S1130D20FC0122813381FB018281938128173907D9
S1130D30D9F481E090E00895235031094217530714
S1130D40B1F4FC0122813381FB0182819381AC01E6
S1130D50415051092417350769F0019628173907BE
S1130D6061F481E090E0089580E090E0089580E0EF
S1130D7090E0089581E090E0089580E090E0089587
S1130D80FC0140815181FB0120813181F9013297BD
S1130D904E175F0761F4FC0122813381FB018281DC
S1130DA0938128173907D9F481E090E00895215000
S1130DB0310942175307B1F4FC0122813381FB014D
S1130DC082819381AC01415051092417350769F0A0
S1130DD001962817390761F481E090E0089580E0D6
S1130DE090E0089580E090E0089581E090E0089517
S1130DF080E090E00895CF93DF9380912201909159
S1130E002301009799F46DEE70E08FEC90E00E945E
S1130E10C006892B09F44DC080916400909165004F
S1130E200197909365008093640043C081309105DD
S1130E30F9F4C0E0D0E0C330D105DCF5CE01880F71
S1130E40991F880F991F8C0F9D1F6DEE70E08153C1
S1130E509F4F0E94C006892B49F0809164009091B5
S1130E606500019790936500809364002196E3CF19
S1130E700297F9F4C0E0D0E0C530D105D4F4CE0136
S1130E80880F991F880F991F8C0F9D1F6DEE70E0BE
S1130E9081539F4F0E94C006892B49F080916400C2
S1130EA0909165000197909365008093640021966A
S1130EB0E3CFDF91CF910895809122019091230196
S1130EC00097E1F48091D300882389F0EFECF0E0FF
S1130ED080819181019691838083419709F096C026
S1130EE081E090E09093D0008093CF00089581E05A
S1130EF090E09093D0008093CF00089581309105C5
S1130F0009F041C080E090E0833091050CF07EC090
S1130F10FC01EE0FFF1FEE0FFF1FE80FF91FE15357
S1130F20FF4F2481222301F1FC01EE0FFF1FEE0F7E
S1130F30FF1FE80FF91FE153FF4F208131812F5F1D
S1130F403F4F3183208321313105D9F4FC01EE0F69
S1130F50FF1FEE0FFF1FE80FF91FE153FF4F21E0C2
S1130F6030E0318320830DC0FC01EE0FFF1FEE0F34
S1130F70FF1FE80FF91FE153FF4F21E030E03183F9
S1130F8020830196C1CF029709F040C080E090E031
S1130F9085309105DCF5FC01EE0FFF1FEE0FFF1FFE
S1130FA0E80FF91FE153FF4F2481222301F1FC01D3
S1130FB0EE0FFF1FEE0FFF1FE80FF91FE153FF4F66
S1130FC0208131812F5F3F4F3183208321313105CF
S1130FD0D9F4FC01EE0FFF1FEE0FFF1FE80FF91FFE
S1130FE0E153FF4F21E030E0318320830DC0FC0149
S1130FF0EE0FFF1FEE0FFF1FE80FF91FE153FF4F26
S113100021E030E0318320830196C2CF0895DC01D2
S1131010FB01838D811107C0848D811104C0858DEE
S1131020882309F474C024853585A90141505109E8
S11310308D919C9111974817590719F02817390772
S1131040C9F42685378512968D919C91139728179C
S1131050390781F4809120019091210101969093A8
S113106021018093200181E090E011969C938E935E
S1131070138E108A21893289A901415051098D9119
S11310809C9111974817590719F028173907C9F483
S11310902389348912968D919C91139728173907C7
S11310A081F4809120019091210101969093210176
S11310B08093200181E090E011969C938E93148E8E
S11310C0158A26893789A901415051098D919C912E
S11310D011974817590719F028173907C1F4208DBB
S11310E0318D12968D919C9113972817390779F4B5
S11310F08091200190912101019690932101809388
S1131100200181E090E08D939C93158E128E0895BA
S1131110DC01FB01838D811107C0848D811104C022
S1131120858D882309F48CC024853585A901415017
S113113051098D919C91119703964817590719F0FD
S11311402817390701F52685378512968D919C91CC
S113115013972817390721F003962817390799F4AC
S11311608091200190912101029690932101809316
S1131170200181E090E011969C938E9314961C922A
S11311801497138E108A21893289A901415051097B
S11311908D919C91119703964817590719F02817B8
S11311A0390701F52389348912968D919C911397FF
S11311B02817390721F003962817390799F48091E5
S11311C020019091210102969093210180932001A6
S11311D081E090E011969C938E9314961C92149740
S11311E0148E158A26893789A901415051098D9198
S11311F09C91119703964817590719F02817390736
S1131200F9F4208D318D12968D919C9113972817A6
S1131210390721F003962817390791F480912001AA
S1131220909121010296909321018093200181E005
S113123090E011969C938E9314961C92158E128EA8
S113124008956DEE70E08AEC90E00E94880808959D
S1131250CF93DF938091220190912301009739F479
S11312606DEE70E08FEC90E00E9407082DC0813095
S11312709105A1F4C0E0D0E0C330D1052CF5CE0136
S1131280880F991F880F991F8C0F9D1F6DEE70E0BA
S113129081539F4F0E9407082196EECF0297A1F435
S11312A0C0E0D0E0C530D1057CF4CE01880F991F91
S11312B0880F991F8C0F9D1F6DEE70E081539F4F17
S11312C00E9407082196EECFDF91CF910895CF9326
S11312D0DF930E945D050E9447050E942E068091BF
S11312E0200190912101009749F065E070E00E948F
S11312F02810892B19F481E08093CE000E94DE052A
S11313000E94FB066DEE70E08AEC90E00E94850678
S1131310892B49F080916400909165000297909325
S1131320650080936400C1E0D0E0CB30D10554F473
S11313300E94A6048BED95E00197F1F700C0000030
S11313402196F3CF80910801882371F0EDEEF0E04F
S113135066857785848595850E946A048DEE92E082
S11313600197F1F700C0000080910901882371F012
S1131370EDEEF0E063897489818992890E946A04A0
S11313808DEE92E00197F1F700C0000080910A0110
S1131390882371F0EDEEF0E0608D718D8689978978
S11313A00E946A048DEE92E00197F1F700C00000FC
S11313B00E945C078091CE00882379F0EAECF0E08B
S11313C0808191810196918380830F9761F481E0FC
S11313D090E091838083148206C081E090E0909332
S11313E0CB008093CA000E9428090E9421098091A1
S11313F0200190912101069744F08091220190915F
S11314002301892B11F40E940D05809120019091F4
S113141021010B9744F080912201909123010197BF
S113142011F40E940D0580910801882379F08091C0
S1131430FD00882359F0EDEEF0E084859585019751
S113144095878487892B11F41092FD0080910901FE
S1131450882379F080910201882359F0EDEEF0E0C1
S1131460818992890197928B818B892B11F4109237
S1131470020180910A01882379F080910701882371
S113148059F0EDEEF0E0868997890197978B868B6A
S1131490892B11F4109207018091FD00811102C083
S11314A01092080180910201811102C01092090179
S11314B080910701811102C010920A0183EC99E026
S11314C00197F1F700C00000DF91CF9108950F93C9
S11314D01F93CF93DF9300E010E00A3011050CF066
S11314E004C168E070E081E090E00E946A048DEE3F
S11314F092E00197F1F700C0000069E070E081E03C
S113150090E00E946A048DEE92E00197F1F700C02A
S1131510000067E070E082E090E00E946A048DEED3
S113152092E00197F1F700C0000068E070E082E00B
S113153090E00E946A048DEE92E00197F1F700C0FA
S1131540000069E070E082E090E00E946A048DEEA1
S113155092E00197F1F700C0000066E070E083E0DC
S113156090E00E946A048DEE92E00197F1F700C0CA
S1131570000067E070E083E090E00E946A048DEE72
S113158092E00197F1F700C0000068E070E083E0AA
S113159090E00E946A048DEE92E00197F1F700C09A
S11315A0000069E070E083E090E00E946A048DEE40
S11315B092E00197F1F700C00000C4E0D0E0CF3022
S11315C0D105C4F468E070E0CE010E946A048DEE97
S11315D092E00197F1F700C0000069E070E0CE01ED
S11315E00E946A048DEE92E00197F1F700C00000BA
S11315F02196E5CF67E070E08FE090E00E946A04F6
S11316008DEE92E00197F1F700C0000068E070E011
S11316108FE090E00E946A048DEE92E00197F1F76A
S113162000C0000069E070E08FE090E00E946A046E
S11316308DEE92E00197F1F700C000006AE070E0DF
S11316408FE090E00E946A048DEE92E00197F1F73A
S113165000C0000066E070E080E190E00E946A044F
S11316608DEE92E00197F1F700C0000067E070E0B2
S113167080E190E00E946A048DEE92E00197F1F718
S113168000C0000068E070E080E190E00E946A041D
S11316908DEE92E00197F1F700C0000069E070E080
S11316A080E190E00E946A048DEE92E00197F1F7E8
S11316B000C000006AE070E080E190E00E946A04EB
S11316C08DEE92E00197F1F700C000006BE070E04E
S11316D080E190E00E946A048DEE92E00197F1F7B8
S11316E000C000000F5F1F4FF8CE00E010E00A308A
S11316F011050CF075C1C4E0D0E0CE30D105C4F4BE
S1131700BE0183E090E00E946A048DEE92E00197AE
S1131710F1F700C00000BE0184E090E00E946A047A
S11317208DEE92E00197F1F700C000002196E5CF1D
S113173064E070E085E090E00E946A048DEE92E03F
S11317400197F1F700C0000065E070E085E090E0EB
S11317500E946A048DEE92E00197F1F700C0000048
S113176066E070E085E090E00E946A048DEE92E00D
S11317700197F1F700C000006CE070E085E090E0B4
S11317800E946A048DEE92E00197F1F700C0000018
S11317906DE070E085E090E00E946A048DEE92E0D6
S11317A00197F1F700C0000064E070E086E090E08B
S11317B00E946A048DEE92E00197F1F700C00000E8
S11317C065E070E086E090E00E946A048DEE92E0AD
S11317D00197F1F700C0000066E070E086E090E059
S11317E00E946A048DEE92E00197F1F700C00000B8
S11317F06CE070E086E090E00E946A048DEE92E076
S11318000197F1F700C000006DE070E086E090E021
S11318100E946A048DEE92E00197F1F700C0000087
S11318206BE070E087E090E00E946A048DEE92E045
S11318300197F1F700C000006CE070E087E090E0F1
S11318400E946A048DEE92E00197F1F700C0000057
S11318506AE070E088E090E00E946A048DEE92E015
S11318600197F1F700C000006BE070E088E090E0C1
S11318700E946A048DEE92E00197F1F700C0000027
S113188069E070E089E090E00E946A048DEE92E0E5
S11318900197F1F700C000006AE070E089E090E091
S11318A00E946A048DEE92E00197F1F700C00000F7
S11318B068E070E08AE090E00E946A048DEE92E0B5
S11318C00197F1F700C0000069E070E08AE090E061
S11318D00E946A048DEE92E00197F1F700C00000C7
S11318E067E070E08BE090E00E946A048DEE92E085
S11318F00197F1F700C0000068E070E08BE090E031
S11319000E946A048DEE92E00197F1F700C0000096
S113191066E070E08CE090E00E946A048DEE92E054
S11319200197F1F700C0000067E070E08CE090E000
S11319300E946A048DEE92E00197F1F700C0000066
S113194065E070E08DE090E00E946A048DEE92E024
S11319500197F1F700C0000066E070E08DE090E0D0
S11319600E946A048DEE92E00197F1F700C0000036
S113197064E070E08EE090E00E946A048DEE92E0F4
S11319800197F1F700C0000065E070E08EE090E0A0
S11319900E946A048DEE92E00197F1F700C0000006
S11319A0C4E0D0E0CE30D105C4F4BE018FE090E0B5
S11319B00E946A048DEE92E00197F1F700C00000E6
S11319C0BE0180E190E00E946A048DEE92E00197EE
S11319D0F1F700C000002196E5CF0F5F1F4F87CEBF
S11319E000E010E00A3011050CF087C1C4E0D0E03B
S11319F0CE30D105C4F4BE0182E090E00E946A04B6
S1131A008DEE92E00197F1F700C00000BE0183E083
S1131A1090E00E946A048DEE92E00197F1F700C015
S1131A2000002196E5CF64E070E084E090E00E943D
S1131A306A048DEE92E00197F1F700C0000065E0C2
S1131A4070E084E090E00E946A048DEE92E00197D9
S1131A50F1F700C0000066E070E084E090E00E94CE
S1131A606A048DEE92E00197F1F700C000006CE08B
S1131A7070E084E090E00E946A048DEE92E00197A9
S1131A80F1F700C000006DE070E084E090E00E9497
S1131A906A048DEE92E00197F1F700C0000064E063
S1131AA070E084E090E00E946A048DEE92E0019779
S1131AB0F1F700C0000065E070E085E090E00E946E
S1131AC06A048DEE92E00197F1F700C0000066E031
S1131AD070E085E090E00E946A048DEE92E0019748
S1131AE0F1F700C000006CE070E085E090E00E9437
S1131AF06A048DEE92E00197F1F700C000006DE0FA
S1131B0070E085E090E00E946A048DEE92E0019717
S1131B10F1F700C00000C6E0D0E0CC30D1050CF0F5
S1131B2054C0CE0108970297C0F569E070E0CE0179
S1131B300E946A048DEE92E00197F1F700C0000064
S1131B406AE070E0CE010E946A048DEE92E0019793
S1131B50F1F700C000006BE070E0CE010E946A045F
S1131B608DEE92E00197F1F700C000006CE070E0A8
S1131B70CE010E946A048DEE92E00197F1F700C055
S1131B8000006DE070E0CE010E946A048DEE92E0E8
S1131B900197F1F700C0000016C06CE070E0CE01C0
S1131BA00E946A048DEE92E00197F1F700C00000F4
S1131BB06DE070E0CE010E946A048DEE92E0019720
S1131BC0F1F700C000002196A8CF64E070E08CE03B
S1131BD090E00E946A048DEE92E00197F1F700C054
S1131BE0000065E070E08DE090E00E946A048DEEF4
S1131BF092E00197F1F700C0000066E070E08DE02C
S1131C0090E00E946A048DEE92E00197F1F700C023
S1131C1000006CE070E08DE090E00E946A048DEEBC
S1131C2092E00197F1F700C000006DE070E08DE0F4
S1131C3090E00E946A048DEE92E00197F1F700C0F3
S1131C40000064E070E08EE090E00E946A048DEE93
S1131C5092E00197F1F700C0000065E070E08EE0CB
S1131C6090E00E946A048DEE92E00197F1F700C0C3
S1131C70000066E070E08EE090E00E946A048DEE61
S1131C8092E00197F1F700C000006CE070E08EE094
S1131C9090E00E946A048DEE92E00197F1F700C093
S1131CA000006DE070E08EE090E00E946A048DEE2A
S1131CB092E00197F1F700C00000C4E0D0E0CE301C
S1131CC0D105C4F4BE018EE090E00E946A048DEE5A
S1131CD092E00197F1F700C00000BE018FE090E0B0
S1131CE00E946A048DEE92E00197F1F700C00000B3
S1131CF02196E5CF0F5F1F4F75CEDF91CF911F91D6
S1131D000F9108950F931F93CF93DF9300E010E09A
S1131D10043111050CF017C164E070E083E090E039
S1131D200E946A0483EF91E00197F1F700C000007C
S1131D3065E070E083E090E00E946A0483EF91E044
S1131D400197F1F700C0000066E070E083E090E0E6
S1131D500E946A0483EF91E00197F1F700C000004C
S1131D606BE070E083E090E00E946A0483EF91E00E
S1131D700197F1F700C000006CE070E083E090E0B0
S1131D800E946A0483EF91E00197F1F700C000001C
S1131D906DE070E083E090E00E946A0483EF91E0DC
S1131DA00197F1F700C0000064E070E084E090E087
S1131DB00E946A0483EF91E00197F1F700C00000EC
S1131DC065E070E084E090E00E946A0483EF91E0B3
S1131DD00197F1F700C0000066E070E084E090E055
S1131DE00E946A0483EF91E00197F1F700C00000BC
S1131DF06BE070E084E090E00E946A0483EF91E07D
S1131E000197F1F700C000006CE070E084E090E01E
S1131E100E946A0483EF91E00197F1F700C000008B
S1131E206DE070E084E090E00E946A0483EF91E04A
S1131E300197F1F700C00000C7E0D0E0CB30D10536
S1131E406CF4BE0189E090E00E946A0483EF91E0A3
S1131E500197F1F700C000002196F0CFC6E0D0E072
S1131E60CC30D1056CF4BE018AE090E00E946A0493
S1131E7083EF91E00197F1F700C000002196F0CFC5
S1131E8065E070E08BE090E00E946A0483EF91E0EB
S1131E900197F1F700C0000066E070E08BE090E08D
S1131EA00E946A0483EF91E00197F1F700C00000FB
S1131EB06BE070E08BE090E00E946A0483EF91E0B5
S1131EC00197F1F700C000006CE070E08BE090E057
S1131ED00E946A0483EF91E00197F1F700C00000CB
S1131EE064E070E08CE090E00E946A0483EF91E08B
S1131EF00197F1F700C0000065E070E08CE090E02D
S1131F000E946A0483EF91E00197F1F700C000009A
S1131F106CE070E08CE090E00E946A0483EF91E052
S1131F200197F1F700C000006DE070E08CE090E0F4
S1131F300E946A0483EF91E00197F1F700C000006A
S1131F400F5F1F4FE5CEDF91CF911F910F91089541
S1131F50CF93DF9385B7836085BF84B7806484BFE4
S1131F6080EE8BBF78940E9423040E94670A0E942B
S1131F70F702809165008F93809164008F93C6E689
S1131F80D0E0DF93CF9386E191E09F938F930E94FB
S1131F90B210809121018F93809120018F93DF9360
S1131FA0CF938CE091E09F938F930E94B21061E0F5
S1131FB081E00E94CB0289E690E00E94790386E1E9
S1131FC091E00E94790361E082E00E94CB0280E705
S1131FD090E00E9479038CE091E00E9479030E94D2
S1131FE0670980916400909165002DB73EB7245F26
S1131FF03F4F0FB6F8943EBF0FBE2DBF18161906FB
S11320000CF4B7CF0E94C4020E94F70261E081E0A1
S11320100E94CB0280E790E00E9479038CE091E07B
S11320200E94790361E082E00E94CB0288E790E09D
S11320300E9479030E94820E80E090E0DF91CF91AC
S113204008956FEF7FEF81E090E00E9455000895BE
S113205097FB072E16F4009407D077FD09D00E9451
S11320603C1007FC05D03EF4909581959F4F089550
S1132070709561957F4F0895AA1BBB1B51E107C062
S1132080AA1FBB1FA617B70710F0A61BB70B881F04
S1132090991F5A95A9F780959095BC01CD01089593
S11320A0EE0FFF1F0590F491E02D09948F929F92FB
S11320B0AF92BF92CF92DF92EF92FF92CF93DF93D2
S11320C0EC01688179818A819B81611571058105A3
S11320D0910521F464E279ED8BE597E02DE133EF8E
S11320E041E050E00E94651349015A019B01AC0193
S11320F0A7EAB1E40E9484136B017C01ACEEB4EF57
S1132100A50194010E949213DC01CB018C0D9D1D4D
S1132110AE1DBF1DB7FF03C00197A109B048888356
S11321209983AA83BB839F77DF91CF91FF90EF9030
S1132130DF90CF90BF90AF909F908F9008950E94B2
S11321405610089580E690E00E9456100895A0E08D
S1132150B0E08093600090936100A0936200B0931C
S113216063000895AEE0B0E0E8EBF0E10C94A51351
S11321700D891E8986E08C831A8309838FEF9FE77C
S11321809E838D83AE01475E5F4F6F89788DCE014C
S113219001960E94D410EF81F885E00FF11F1082A0
S11321A02E96E4E00C94C113ABE0B0E0EAEDF0E16C
S11321B00C9497136C017B018A01FC01178216822F
S11321C0838181FFCCC1CE0101963C01F60193814C
S11321D0F70193FD859193FF81917F01882309F491
S11321E0BAC1853239F493FD859193FF81917F01C2
S11321F0853229F4B60190E00E94CB12E7CF912CEE
S1132200212C312CFFE1F315D8F08B3279F038F41E
S1132210803279F08332A1F4232D20611DC08D32E8
S113222061F0803369F4232D216016C0832D826010
S1132230382EE32DE4603E2E2AC0F32DF8601DC035
S113224037FC2DC020ED280F2A3040F08E32B9F42F
S113225036FC81C1232D2064322E19C036FE06C0FF
S11322608AE0989E200D1124922E11C0EAE02E9E41
S1132270200D1124222EF32DF0623F2E08C08C363F
S113228021F4832D8068382E02C0883641F4F7018A
S113229093FD859193FF81917F018111B3CF982F95
S11322A09F7D9554933028F40C5F1F4F9FE39983CF
S11322B00DC0833631F0833771F0833509F059C08E
S11322C021C0F801808189830E5F1F4F8824839485
S11322D0912C530113C02801F2E04F0E511CF80158
S11322E0A080B18036FE03C0692D70E002C06FEF9C
S11322F07FEFC5010E94C0124C018201F32DFF77CC
S11323003F2E16C0280122E0420E511CF801A08085
S1132310B18036FE03C0692D70E002C06FEF7FEF1D
S1132320C5010E94B5124C01F32DF0683F2E8201C5
S113233033FC1BC0822D90E088169906B0F4B601D8
S113234080E290E00E94CB122A94F4CFF50137FC8E
S1132350859137FE81915F01B60190E00E94CB1216
S113236021102A9421E0821A91088114910471F7B2
S1132370E8C0843611F0893641F5F80137FE07C00C
S113238060817181828193810C5F1F4F08C06081DD
S11323907181072E000C880B990B0E5F1F4FF32DD4
S11323A0FF763F2E97FF09C09095809570956195B3
S11323B07F4F8F4F9F4FF0683F2E2AE030E0A301FC
S11323C00E940713882E861845C0853731F4232DC3
S11323D02F7EB22E2AE030E025C0932D997FB92EAE
S11323E08F36C1F018F4883579F0B5C0803719F00C
S11323F0883721F0B0C0E92FE061BE2EB4FE0DC0D5
S1132400FB2DF460BF2E09C034FE0AC0292F2660BC
S1132410B22E06C028E030E005C020E130E002C062
S113242020E132E0F801B7FE07C06081718182814A
S113243093810C5F1F4F06C06081718180E090E042
S11324400E5F1F4FA3010E940713882E8618FB2DD1
S1132450FF773F2E36FE0DC0232D2E7FA22E89142A
S113246058F434FE0BC032FC09C0832D8E7EA82E96
S113247005C0B82CA32C03C0B82C01C0B92CA4FEF1
S11324800FC0FE01E80DF11D8081803321F49A2DE7
S1132490997EA92E09C0A2FE06C0B394B39404C0C9
S11324A08A2D867809F0B394A3FC11C0A0FE06C05F
S11324B0B21488F4280C922C9B180EC0B21460F449
S11324C0B60180E290E00E94CB12B394F7CFB2142D
S11324D018F42B1802C0982C212CA4FE10C0B601AD
S11324E080E390E00E94CB12A2FE17C0A1FC03C0BF
S11324F088E790E002C088E590E0B6010CC08A2D20
S1132500867859F0A1FE02C08BE201C080E2A7FCEC
S11325108DE2B60190E00E94CB12891438F4B60122
S113252080E390E00E94CB129A94F7CF8A94F3014F
S1132530E80DF11D8081B60190E00E94CB1281105C
S1132540F5CF222009F442CEB60180E290E00E9449
S1132550CB122A94F6CFF6018681978102C08FEFC1
S11325609FEF2B96E2E10C94B313FC0105906150AC
S113257070400110D8F7809590958E0F9F1F089595
S1132580FC016150704001900110D8F7809590953E
S11325908E0F9F1F08950F931F93CF93DF93FB011B
S11325A0238121FD03C08FEF9FEF2CC022FF16C0B3
S11325B046815781248135814217530744F4A08111
S11325C0B1819D012F5F3F4F318320838C932681FE
S11325D037812F5F3F4F3783268314C08B01EC0173
S11325E0FB010084F185E02D0995892BE1F6D801E2
S11325F016968D919C911797019617969C938E939E
S11326001697CE01DF91CF911F910F910895FA0192
S1132610AA27283051F1203181F1E8946F936E7F1D
S11326206E5F7F4F8F4F9F4FAF4FB1E03ED0B4E00E
S11326303CD0670F781F891F9A1FA11D680F791F4F
S11326408A1F911DA11D6A0F711D811D911DA11D60
S113265020D009F468943F912AE0269F1124301970
S1132660305D3193DEF6CF010895462F4770405D0B
S11326704193B3E00FD0C9F7F6CF462F4F70405DBA
S11326804A3318F0495D31FD4052419302D0A9F715
S1132690EACFB4E0A6959795879577956795BA950F
S11326A0C9F700976105710508959B01AC010A2ED5
S11326B006945795479537952795BA95C9F7620FAC
S11326C0731F841F951FA01D0895052E97FB1EF4EC
S11326D000940E947C1357FD07D00E94CE1307FC80
S11326E003D04EF40C947C1350954095309521956D
S11326F03F4F4F4F5F4F089590958095709561952A
S11327007F4F8F4F9F4F08950E94F013A59F900D08
S1132710B49F900DA49F800D911D11240895B7FFBF
S11327200C9484130E948413821B930B08952F929C
S11327303F924F925F926F927F928F929F92AF924D
S1132740BF92CF92DF92EF92FF920F931F93CF939A
S1132750DF93CDB7DEB7CA1BDB0B0FB6F894DEBF31
S11327600FBECDBF09942A88398848885F846E8457
S11327707D848C849B84AA84B984C884DF80EE80A1
S1132780FD800C811B81AA81B981CE0FD11D0FB6AA
S1132790F894DEBF0FBECDBFED010895A1E21A2E5D
S11327A0AA1BBB1BFD010DC0AA1FBB1FEE1FFF1FF1
S11327B0A217B307E407F50720F0A21BB30BE40B41
S11327C0F50B661F771F881F991F1A9469F7609588
S11327D07095809590959B01AC01BD01CF01089542
S11327E0A29FB001B39FC001A39F700D811D11244E
S11327F0911DB29F700D811D1124911D0895F894AF
S1052800FFCF04
S11328020100000005002564004C6966653A200059
S113281253636F72653A200047616D65204F766598
S1132822722121212100030B131B232B333B020AA8
S1132832121A222A323A01091119212931390008BE
S113284210182028303801020408102040800102A8
S109285204081020408080
S9030000FC
