:100000000C942B000C947F030C94A2030C94C50356
:100010000C9453000C9453000C9453000C94530014
:100020000C9453000C9453000C9453000C94530004
:100030000C9453000C9453000C9453000C945300F4
:100040000C9453000C9453000C9453000C945300E4
:100050000C945300F10611241FBECFE5D8E0DEBF9B
:10006000CDBF10E0A0E6B0E0E2EAF5E102C0059005
:100070000D92A63BB107D9F721E0A6EBB0E001C095
:100080001D92A930B207E1F710E0CBE2D0E004C046
:100090002197FE010E942007CA32D107C9F70E94AA
:1000A0007D060C94CF0A0C9400000197B9F56F3FC0
:1000B0007F4FA1F5E4EDF0E081E0808B858B828FAE
:1000C0008483858325E030E037832683318720874A
:1000D00013861286158E148E138E8093D300809310
:1000E000CE008093C90085E0E0EEF0E0A0ECB0E047
:1000F00001900D928A95E1F785E0E5EEF0E0ABEB3B
:10010000B0E001900D928A95E1F785E0EAEEF0E02B
:10011000A6EBB0E001900D928A95E1F70895672B68
:1001200009F0DFC0009721F48BB38E7F8BBB08955D
:100130008130910521F48BB38D7F8BBB0895823084
:10014000910521F48BB38B7F8BBB08958330910590
:1001500021F48BB3877F8BBB08958430910521F404
:100160008BB38F7E8BBB08958530910521F48BB3C3
:100170008F7D8BBB08958630910521F48BB38F7BE7
:100180008BBB08958730910521F48BB38F778BBBA0
:1001900008958A30910521F488B38E7F88BB089535
:1001A0008B30910521F488B38D7F88BB08958C3006
:1001B000910521F488B38B7F88BB08958D3091051C
:1001C00021F488B3877F88BB08958E30910521F490
:1001D00088B38F7E88BB08958F30910521F488B352
:1001E0008F7D88BB08958031910521F488B38F7B82
:1001F00088BB08958131910521F488B38F7788BB3E
:1002000008958431910521F485B38E7F85BB0895CF
:100210008531910521F485B38D7F85BB08958631A5
:10022000910521F485B38B7F85BB089587319105B6
:1002300021F485B3877F85BB08958831910521F42A
:1002400085B38F7E85BB08958931910521F485B3EF
:100250008F7D85BB08958A31910521F485B38F7B0D
:1002600085BB08958B31910521F485B38F7785BBCC
:1002700008958E31910521F482B38E7F82BB08955B
:100280008F31910521F482B38D7F82BB0895803236
:10029000910521F482B38B7F82BB08958132910551
:1002A00021F482B3877F82BB08958232910521F4C5
:1002B00082B38F7E82BB08958332910521F482B38D
:1002C0008F7D82BB08958432910521F482B38F7BA8
:1002D00082BB0895859709F0E1C082B38F7782BB16
:1002E0000895009721F48BB381608BBB0895813012
:1002F000910521F48BB382608BBB08958230910508
:1003000021F48BB384608BBB08958330910521F475
:100310008BB388608BBB08958430910521F48BB337
:1003200080618BBB08958530910521F48BB3806289
:100330008BBB08958630910521F48BB380648BBB11
:1003400008958730910521F48BB380688BBB0895A5
:100350008A30910521F488B3816088BB08958B3081
:10036000910521F488B3826088BB08958C30910593
:1003700021F488B3846088BB08958D30910521F401
:1003800088B3886088BB08958E30910521F488B3C6
:10039000806188BB08958F30910521F488B3806215
:1003A00088BB08958031910521F488B3806488BBAF
:1003B00008958131910521F488B3806888BB089540
:1003C0008431910521F485B3816085BB0895853121
:1003D000910521F485B3826085BB0895863191052E
:1003E00021F485B3846085BB08958731910521F49C
:1003F00085B3886085BB08958831910521F485B364
:10040000806185BB08958931910521F485B38062AF
:1004100085BB08958A31910521F485B3806485BB3D
:1004200008958B31910521F485B3806885BB0895CB
:100430008E31910521F482B3816082BB08958F31A2
:10044000910521F482B3826082BB089580329105C8
:1004500021F482B3846082BB08958132910521F436
:1004600082B3886082BB08958232910521F482B301
:10047000806182BB08958332910521F482B380624A
:1004800082BB08958432910521F482B3806482BBDB
:100490000895859719F482B3806882BB0895CF933D
:1004A000C82F80FF07C061E070E082E290E00E9408
:1004B0008F0006C060E070E082E290E00E948F0052
:1004C000C1FF07C061E070E083E290E00E948F000E
:1004D00006C060E070E083E290E00E948F00C2FFFF
:1004E00007C061E070E084E290E00E948F0006C0E7
:1004F00060E070E084E290E00E948F00C3FF07C0DC
:1005000061E070E085E290E00E948F0006C060E04C
:1005100070E085E290E00E948F00CF910895CF9324
:10052000C82F60E070E08AE190E00E948F008C2F7D
:100530000E944F0261E070E08BE190E00E948F002A
:1005400089EF90E00197F1F700C0000060E070E0F3
:100550008BE190E00E948F0089EF90E00197F1F726
:1005600000C00000CF91089580E00E948F0281E0DA
:100570000E948F020895CF93813099F480E8860F0E
:1005800090E09595879595958795959587959595FF
:100590008795C62FCF700E948F028C2F0E948F02EA
:1005A00014C0823091F480EC860F90E09595879589
:1005B000959587959595879595958795C62FCF7035
:1005C0000E948F028C2F0E948F02CF91089580E0AD
:1005D0000E944F0287E893E10197F1F700C0000005
:1005E00083E00E948F0281EE94E00197F1F700C052
:1005F000000083E00E948F028DEB9AE00197F1F7F3
:1006000000C0000083E00E948F0282E00E948F02FF
:1006100082E00E948F0288E00E948F0280E00E94A8
:100620008F028CE00E948F0280E00E948F0286E0A1
:100630000E948F020895CF93DF93D82FDF70C82FC9
:10064000C07F61E070E08AE190E00E948F008C2F13
:1006500090E095958795959587959595879595952E
:1006600087950E944F0261E070E08BE190E00E946C
:100670008F0089EF90E00197F1F700C0000060E083
:1006800070E08BE190E00E948F0089EF90E001978D
:10069000F1F700C000008D2F0E944F0261E070E072
:1006A0008BE190E00E948F0089EF90E00197F1F7D5
:1006B00000C0000060E070E08BE190E00E948F00DD
:1006C00089EF90E00197F1F700C00000DF91CF9132
:1006D00008950F931F93CF93DF938C01C0E0D0E078
:1006E000F801EC0FFD1F8081882321F00E941B037D
:1006F0002196F6CFDF91CF911F910F9108951F9210
:100700000F920FB60F9211248F939F93EF93FF9345
:100710008091D800882369F0E4EDF0E081E08583E2
:1007200082819381019793838283029711F41092BF
:10073000D800FF91EF919F918F910F900FBE0F9076
:100740001F9018951F920F920FB60F9211248F933E
:100750009F93EF93FF938091D900882369F0E4ED94
:10076000F0E081E084838281938101969383828388
:100770000F9711F41092D900FF91EF919F918F91F3
:100780000F900FBE0F901F9018951F920F920FB6EB
:100790000F9211242F933F938F939F93EF93FF9387
:1007A0008091EF0081110FC0E4EDF0E022813381F0
:1007B000808191810397958784873787268781E099
:1007C000808B838F25C08091F00081110FC0E4EDF4
:1007D000F0E022813381808191810397928B818B1C
:1007E000348B238B81E0858B848F12C08091F10044
:1007F00081110EC0E4EDF0E022813381808191818E
:100800000397978B868B318F208F81E0828F858F26
:10081000FF91EF919F918F913F912F910F900FBE7C
:100820000F901F9018958FEF8ABB87BB84BB81BB4D
:10083000E4EDF0E080E190E09183808388E090E057
:100840009383828381E090E09093CB008093CA00F1
:1008500010920801109207010895FB01EB55FF4F1C
:1008600020818930910554F4693071053CF4FC0114
:10087000E357FF4F80818093F20026C089309105B5
:1008800054F0693071053CF4FC01EB56FF4F808158
:100890008093F20019C08930910554F069307105D8
:1008A0003CF0FC01E357FF4F80818093F2000CC0C5
:1008B000893091054CF46930710534F0FC01EB5737
:1008C000FF4F80818093F2002BBB8091F20088BBA8
:1008D00008958091EF00882309F475C02091E0000D
:1008E0003091E1008091CA009091CB002817390720
:1008F000F9F44091E2005091E3002091CC00309156
:10090000CD0042175307A1F480910701909108018F
:100910000196909308018093070181E090E0909305
:10092000CB008093CA00E4EDF0E0138E108A0895A6
:100930002091E5003091E60082179307F9F4409189
:10094000E7005091E8002091CC003091CD00421793
:100950005307A1F4809107019091080101969093AB
:1009600008018093070181E090E09093CB00809391
:10097000CA00E4EDF0E0148E158A08952091EA0093
:100980003091EB0082179307F1F42091EC00309145
:10099000ED008091CC009091CD002817390799F493
:1009A000809107019091080101969093080180932E
:1009B000070181E090E09093CB008093CA00E4EDC2
:1009C000F0E0158E128E08952091CA003091CB0070
:1009D0008091D4009091D50028173907C1F4209157
:1009E000CC003091CD008091D6009091D700AC0121
:1009F000415051092417350769F02817390769F064
:100A000001962817390761F481E090E0089580E0AD
:100A100090E0089581E090E0089581E090E00895ED
:100A200080E090E00895CF93DF93C4EDD0E06A8139
:100A30007B818881998102970E942D0483EF91E048
:100A40000197F1F700C000006A817B816150710954
:100A50008881998101970E942D0483EF91E001978D
:100A6000F1F700C000006A817B818881998101973C
:100A70000E942D0483EF91E00197F1F700C0000080
:100A80006A817B816F5F7F4F8881998101970E9486
:100A90002D0483EF91E00197F1F700C000006A8117
:100AA0007B8161507109888199810E942D0483EFB7
:100AB00091E00197F1F700C000006A817B81888195
:100AC00099810E942D0483EF91E00197F1F700C016
:100AD00000006A817B816F5F7F4F888199810E94CE
:100AE0002D0483EF91E00197F1F700C00000DF9142
:100AF000CF910895CF93DF938091CA009091CB005E
:100B0000019759F40E94720761E170E00E94F806B3
:100B100001969093CD008093CC00EAECF0E06281E6
:100B20007381808191810E942D0481EE94E0019770
:100B3000F1F700C000000E94E404892B49F0809185
:100B40006400909165000197909365008093640024
:100B5000C1E0D0E0CB30D10554F40E94130585EDFF
:100B600096E00197F1F700C000002196F3CF809145
:100B7000EF008823D9F0C4EDD0E06E857F858C85A9
:100B80009D850E942D0481EE94E00197F1F700C04D
:100B900000006E857F858C859D8501970E942D04C0
:100BA00081EE94E00197F1F700C000008091F00021
:100BB0008823D9F0C4EDD0E06B897C8989899A8932
:100BC0000E942D0481EE94E00197F1F700C000002F
:100BD0006B897C8989899A8901970E942D0481EE0D
:100BE00094E00197F1F700C000008091F1008823A4
:100BF000D9F0C4EDD0E0688D798D8E899F890E94EF
:100C00002D0481EE94E00197F1F700C000006B899C
:100C10007C8989899A8901970E942D0481EE94E04C
:100C20000197F1F700C000008091CA009091CB00BD
:100C30008031910539F481E090E09093CB0080936E
:100C4000CA0005C001969093CB008093CA008091A2
:100C5000EF00882379F08091E400882359F0E4EDD7
:100C6000F0E084859585019795878487892B11F419
:100C70001092E4008091F000882379F08091E900DF
:100C8000882359F0E4EDF0E0818992890197928BF5
:100C9000818B892B11F41092E9008091F100882357
:100CA00079F08091EE00882359F0E4EDF0E0868938
:100CB00097890197978B868B892B11F41092EE0000
:100CC0008091E400811102C01092EF008091E90050
:100CD000811102C01092F0008091EE00811102C0DB
:100CE0001092F1000E94690483EC99E00197F1F7FA
:100CF00000C00000DF91CF910895CF93DF9385B7B7
:100D0000836085BF84B7806484BF80EE8BBF789496
:100D10000E9413040E94E702809165008F938091E6
:100D200064008F93C6E6D0E0DF93CF938DEF90E021
:100D30009F938F930E948207809108018F938091E7
:100D400007018F93DF93CF9383EF90E09F938F936F
:100D50000E94820761E081E00E94BB0289E690E088
:100D60000E9469038DEF90E00E94690361E082E0D8
:100D70000E94BB0280E790E00E94690383EF90E04D
:100D80000E9469030E947A05809164009091650039
:100D90002DB73EB7245F3F4F0FB6F8943EBF0FBE4E
:100DA0002DBF892B09F0B8CF0E94B4020E94E70240
:100DB00061E081E00E94BB0280E790E00E9469034D
:100DC00083EF90E00E94690361E082E00E94BB0231
:100DD00088E790E00E94690380E090E0DF91CF9186
:100DE00008956FEF7FEF81E090E00E945500089535
:100DF00097FB072E16F4009407D077FD09D00E94C8
:100E00000C0707FC05D03EF4909581959F4F0895FF
:100E1000709561957F4F0895AA1BBB1B51E107C0D8
:100E2000AA1FBB1FA617B70710F0A61BB70B881F7A
:100E3000991F5A95A9F780959095BC01CD01089509
:100E4000EE0FFF1F0590F491E02D09948F929F9271
:100E5000AF92BF92CF92DF92EF92FF92CF93DF9348
:100E6000EC01688179818A819B8161157105810519
:100E7000910521F464E279ED8BE597E02DE133EF04
:100E800041E050E00E94350A49015A019B01AC0142
:100E9000A7EAB1E40E94540A6B017C01ACEEB4EF06
:100EA000A50194010E94620ADC01CB018C0D9D1DFD
:100EB000AE1DBF1DB7FF03C00197A109B0488883CD
:100EC0009983AA83BB839F77DF91CF91FF90EF90A7
:100ED000DF90CF90BF90AF909F908F9008950E9429
:100EE0002607089580E690E00E9426070895A0E076
:100EF000B0E08093600090936100A0936200B09393
:100F000063000895AEE0B0E0E8E8F7E00C94750AFD
:100F10000D891E8986E08C831A8309838FEF9FE7F2
:100F20009E838D83AE01475E5F4F6F89788DCE01C2
:100F300001960E94A407EF81F885E00FF11F10824F
:100F40002E96E4E00C94910AABE0B0E0EAEAF7E018
:100F50000C94670A6C017B018A01FC0117821682DE
:100F6000838181FFCCC1CE0101963C01F6019381C2
:100F7000F70193FD859193FF81917F01882309F407
:100F8000BAC1853239F493FD859193FF81917F0138
:100F9000853229F4B60190E00E949B09E7CF912C9D
:100FA000212C312CFFE1F315D8F08B3279F038F495
:100FB000803279F08332A1F4232D20611DC08D325F
:100FC00061F0803369F4232D216016C0832D826087
:100FD000382EE32DE4603E2E2AC0F32DF8601DC0AC
:100FE00037FC2DC020ED280F2A3040F08E32B9F4A6
:100FF00036FC81C1232D2064322E19C036FE06C076
:101000008AE0989E200D1124922E11C0EAE02E9EB7
:10101000200D1124222EF32DF0623F2E08C08C36B5
:1010200021F4832D8068382E02C0883641F4F70100
:1010300093FD859193FF81917F018111B3CF982F0B
:101040009F7D9554933028F40C5F1F4F9FE3998345
:101050000DC0833631F0833771F0833509F059C004
:1010600021C0F801808189830E5F1F4F88248394FB
:10107000912C530113C02801F2E04F0E511CF801CE
:10108000A080B18036FE03C0692D70E002C06FEF12
:101090007FEFC5010E9490094C018201F32DFF777B
:1010A0003F2E16C0280122E0420E511CF801A080FC
:1010B000B18036FE03C0692D70E002C06FEF7FEF94
:1010C000C5010E9485094C01F32DF0683F2E820175
:1010D00033FC1BC0822D90E088169906B0F4B6014F
:1010E00080E290E00E949B092A94F4CFF50137FC3E
:1010F000859137FE81915F01B60190E00E949B09C6
:1011000021102A9421E0821A91088114910471F728
:10111000E8C0843611F0893641F5F80137FE07C082
:1011200060817181828193810C5F1F4F08C0608153
:101130007181072E000C880B990B0E5F1F4FF32D4A
:10114000FF763F2E97FF09C0909580957095619529
:101150007F4F8F4F9F4FF0683F2E2AE030E0A30172
:101160000E94D709882E861845C0853731F4232D73
:101170002F7EB22E2AE030E025C0932D997FB92E24
:101180008F36C1F018F4883579F0B5C0803719F082
:10119000883721F0B0C0E92FE061BE2EB4FE0DC04B
:1011A000FB2DF460BF2E09C034FE0AC0292F266033
:1011B000B22E06C028E030E005C020E130E002C0D9
:1011C00020E132E0F801B7FE07C0608171818281C1
:1011D00093810C5F1F4F06C06081718180E090E0B9
:1011E0000E5F1F4FA3010E94D709882E8618FB2D82
:1011F000FF773F2E36FE0DC0232D2E7FA22E8914A1
:1012000058F434FE0BC032FC09C0832D8E7EA82E0C
:1012100005C0B82CA32C03C0B82C01C0B92CA4FE67
:101220000FC0FE01E80DF11D8081803321F49A2D5D
:10123000997EA92E09C0A2FE06C0B394B39404C03F
:101240008A2D867809F0B394A3FC11C0A0FE06C0D5
:10125000B21488F4280C922C9B180EC0B21460F4BF
:10126000B60180E290E00E949B09B394F7CFB214DC
:1012700018F42B1802C0982C212CA4FE10C0B60123
:1012800080E390E00E949B09A2FE17C0A1FC03C06E
:1012900088E790E002C088E590E0B6010CC08A2D96
:1012A000867859F0A1FE02C08BE201C080E2A7FC63
:1012B0008DE2B60190E00E949B09891438F4B601D2
:1012C00080E390E00E949B099A94F7CF8A94F301FF
:1012D000E80DF11D8081B60190E00E949B0981100C
:1012E000F5CF222009F442CEB60180E290E00E94C0
:1012F0009B092A94F6CFF6018681978102C08FEF71
:101300009FEF2B96E2E10C94830AFC01059061505B
:1013100070400110D8F7809590958E0F9F1F08950B
:10132000FC016150704001900110D8F780959095B4
:101330008E0F9F1F08950F931F93CF93DF93FB0191
:10134000238121FD03C08FEF9FEF2CC022FF16C029
:1013500046815781248135814217530744F4A08187
:10136000B1819D012F5F3F4F318320838C93268174
:1013700037812F5F3F4F3783268314C08B01EC01E9
:10138000FB010084F185E02D0995892BE1F6D80158
:1013900016968D919C911797019617969C938E9314
:1013A0001697CE01DF91CF911F910F910895FA0109
:1013B000AA27283051F1203181F1E8946F936E7F94
:1013C0006E5F7F4F8F4F9F4FAF4FB1E03ED0B4E085
:1013D0003CD0670F781F891F9A1FA11D680F791FC6
:1013E0008A1F911DA11D6A0F711D811D911DA11DD7
:1013F00020D009F468943F912AE0269F11243019E7
:10140000305D3193DEF6CF010895462F4770405D81
:101410004193B3E00FD0C9F7F6CF462F4F70405D30
:101420004A3318F0495D31FD4052419302D0A9F78B
:10143000EACFB4E0A6959795879577956795BA9585
:10144000C9F700976105710508959B01AC010A2E4B
:1014500006945795479537952795BA95C9F7620F22
:10146000731F841F951FA01D0895052E97FB1EF462
:1014700000940E944C0A57FD07D00E949E0A07FC68
:1014800003D04EF40C944C0A50954095309521951C
:101490003F4F4F4F5F4F08959095809570956195A0
:1014A0007F4F8F4F9F4F08950E94C00AA59F900DB8
:1014B000B49F900DA49F800D911D11240895B7FF36
:1014C0000C94540A0E94540A821B930B08952F9285
:1014D0003F924F925F926F927F928F929F92AF92C4
:1014E000BF92CF92DF92EF92FF920F931F93CF9311
:1014F000DF93CDB7DEB7CA1BDB0B0FB6F894DEBFA8
:101500000FBECDBF09942A88398848885F846E84CD
:101510007D848C849B84AA84B984C884DF80EE8017
:10152000FD800C811B81AA81B981CE0FD11D0FB620
:10153000F894DEBF0FBECDBFED010895A1E21A2ED3
:10154000AA1BBB1BFD010DC0AA1FBB1FEE1FFF1F67
:10155000A217B307E407F50720F0A21BB30BE40BB7
:10156000F50B661F771F881F991F1A9469F76095FE
:101570007095809590959B01AC01BD01CF010895B8
:10158000A29FB001B39FC001A39F700D811D1124C4
:10159000911DB29F700D811D1124911D0895F89425
:0215A000FFCF7B
:1015A2000100000005002564004C6966653A2000D0
:1015B20053636F72653A200047616D65204F76650F
:1015C200722121212100030B131B232B333B020A1F
:1015D200121A222A323A0109111921293139000835
:1015E200101820283038010204081020408001021F
:0615F200040810204080F7
:00000001FF
