:100000000C942A000C9434000C9434000C943400AA
:100010000C9434000C9434000C9434000C94340090
:100020000C9434000C9434000C9434000C94340080
:100030000C9434000C9434000C9434000C94340070
:100040000C9434000C9434000C9434000C94340060
:100050000C94340011241FBECFE5D8E0DEBFCDBF25
:100060000E9409030C9441030C940000672B09F0D3
:10007000DFC0009721F48BB38E7F8BBB0895813056
:10008000910521F48BB38D7F8BBB08958230910550
:1000900021F48BB38B7F8BBB08958330910521F4C2
:1000A0008BB3877F8BBB08958430910521F48BB38C
:1000B0008F7E8BBB08958530910521F48BB38F7DA6
:1000C0008BBB08958630910521F48BB38F7B8BBB5E
:1000D00008958730910521F48BB38F778BBB0895FA
:1000E0008A30910521F488B38E7F88BB08958B30C8
:1000F000910521F488B38D7F88BB08958C309105DC
:1001000021F488B38B7F88BB08958D30910521F44D
:1001100088B3877F88BB08958E30910521F488B31A
:100120008F7E88BB08958F30910521F488B38F7D31
:1001300088BB08958031910521F488B38F7B88BBFB
:1001400008958131910521F488B38F7788BB089594
:100150008431910521F485B38E7F85BB0895853167
:10016000910521F485B38D7F85BB08958631910576
:1001700021F485B38B7F85BB08958731910521F4E8
:1001800085B3877F85BB08958831910521F485B3B8
:100190008F7E85BB08958931910521F485B38F7DCC
:1001A00085BB08958A31910521F485B38F7B85BB8A
:1001B00008958B31910521F485B38F7785BB089520
:1001C0008E31910521F482B38E7F82BB08958F31E9
:1001D000910521F482B38D7F82BB08958032910511
:1001E00021F482B38B7F82BB08958132910521F483
:1001F00082B3877F82BB08958232910521F482B356
:100200008F7E82BB08958332910521F482B38F7D66
:1002100082BB08958432910521F482B38F7B82BB27
:100220000895859709F0E1C082B38F7782BB089566
:10023000009721F48BB381608BBB089581309105C9
:1002400021F48BB382608BBB08958230910521F439
:100250008BB384608BBB08958330910521F48BB3FD
:1002600088608BBB08958430910521F48BB3806145
:100270008BBB08958530910521F48BB380628BBBD5
:1002800008958630910521F48BB380648BBB08956B
:100290008730910521F48BB380688BBB08958A3039
:1002A000910521F488B3816088BB08958B30910556
:1002B00021F488B3826088BB08958C30910521F4C5
:1002C00088B3846088BB08958D30910521F488B38C
:1002D000886088BB08958E30910521F488B38061D1
:1002E00088BB08958F30910521F488B3806288BB64
:1002F00008958031910521F488B3806488BB089506
:100300008131910521F488B3806888BB08958431D8
:10031000910521F485B3816085BB089585319105F0
:1003200021F485B3826085BB08958631910521F45F
:1003300085B3846085BB08958731910521F485B329
:10034000886085BB08958831910521F485B380616B
:1003500085BB08958931910521F485B3806285BB01
:1003600008958A31910521F485B3806485BB089591
:100370008B31910521F485B3806885BB08958E315A
:10038000910521F482B3816082BB08958F3191057C
:1003900021F482B3826082BB08958032910521F4FA
:1003A00082B3846082BB08958132910521F482B3C7
:1003B000886082BB08958232910521F482B3806106
:1003C00082BB08958332910521F482B3806282BB9F
:1003D00008958432910521F482B3806482BB08952C
:1003E000859719F482B3806882BB0895CF93C82F94
:1003F00080FF07C061E070E082E290E00E9436007A
:1004000006C060E070E082E290E00E943600C1FF2A
:1004100007C061E070E083E290E00E94360006C011
:1004200060E070E083E290E00E943600C2FF07C007
:1004300061E070E084E290E00E94360006C060E077
:1004400070E084E290E00E943600C3FF07C061E0E4
:1004500070E085E290E00E94360006C060E070E047
:1004600085E290E00E943600CF910895CF93C82F87
:1004700060E070E08AE190E00E9436008C2F0E94DC
:10048000F60161E070E08BE190E00E94360089EFB8
:1004900090E00197F1F700C0000060E070E08BE1B0
:1004A00090E00E94360089EF90E00197F1F700C0DC
:1004B0000000CF910895CF93813099F480E8860FA2
:1004C00090E09595879595958795959587959595C0
:1004D0008795C62FCF700E9436028C2F0E9436025D
:1004E00014C0823091F480EC860F90E0959587954A
:1004F000959587959595879595958795C62FCF70F6
:100500000E9436028C2F0E943602CF91089580E01F
:100510000E94F60187E893E10197F1F700C000001F
:1005200083E00E94360281EE94E00197F1F700C06B
:10053000000083E00E9436028DEB9AE00197F1F70C
:1005400000C0000083E00E94360282E00E94360272
:1005500082E00E94360288E00E94360280E00E941B
:1005600036028CE00E94360280E00E94360286E06D
:100570000E9436020895CF93DF93D82FDF70C82FE3
:10058000C07F61E070E08AE190E00E9436008C2F2D
:1005900090E09595879595958795959587959595EF
:1005A00087950E94F60161E070E08BE190E00E9487
:1005B000360089EF90E00197F1F700C0000060E09D
:1005C00070E08BE190E00E94360089EF90E00197A7
:1005D000F1F700C000008D2F0E94F60161E070E08D
:1005E0008BE190E00E94360089EF90E00197F1F7EF
:1005F00000C0000060E070E08BE190E00E943600F7
:1006000089EF90E00197F1F700C00000DF91CF91F2
:1006100008958FEF81BB84BB87BB8ABB0E94870292
:1006200061E081E00E945B0286E50E94BB028FE6EA
:100630000E94BB028CE60E94BB0284E70E94BB02C0
:1006400081E60E94BB0287E60E94BB0285E60E940B
:10065000BB028AE30E94BB028FE493EC0197F1F79F
:1006600000C0000087EF8BBB89E388BB87EA91E677
:100670000197F1F700C0000061E082E00E945B0298
:06068000CFCFF894FFCF7C
:00000001FF
