S00C000047616D652E737265639E
S11300000C942A000C9432030C944F030C946C034C
S11300100C9447000C9447000C9447000C94470040
S11300200C9447000C9447000C9447000C94470030
S11300300C9447000C9447000C9447000C94470020
S11300400C9447000C9447000C9447000C94470010
S11300500C94470011241FBECFE5D8E0DEBFCDBF0E
S113006010E0A0E6B0E0E4E3F2E102C005900D92F6
S1130070A43BB107D9F720E0A4EBB0E001C01D9286
S1130080AE3EB207E1F70E94C8050C9418090C941F
S11300900000672B09F0DFC0009721F48BB38E7F3B
S11300A08BBB08958130910521F48BB38D7F8BBB7D
S11300B008958230910521F48BB38B7F8BBB089517
S11300C08330910521F48BB3877F8BBB08958430F3
S11300D0910521F48BB38F7E8BBB089585309105F8
S11300E021F48BB38F7D8BBB08958630910521F469
S11300F08BB38F7B8BBB08958730910521F48BB331
S11301008F778BBB08958A30910521F488B38E7F55
S113011088BB08958B30910521F488B38D7F88BB0B
S113012008958C30910521F488B38B7F88BB0895A2
S11301308D30910521F488B3877F88BB08958E3074
S1130140910521F488B38F7E88BB08958F30910583
S113015021F488B38F7D88BB08958031910521F403
S113016088B38F7B88BB08958131910521F488B3CE
S11301708F7788BB08958431910521F485B38E7FF0
S113018085BB08958531910521F485B38D7F85BBA9
S113019008958631910521F485B38B7F85BB08953D
S11301A08731910521F485B3877F85BB0895883114
S11301B0910521F485B38F7E85BB0895893191051E
S11301C021F485B38F7D85BB08958A31910521F48F
S11301D085B38F7B85BB08958B31910521F485B35D
S11301E08F7785BB08958E31910521F482B38E7F7C
S11301F082BB08958F31910521F482B38D7F82BB38
S113020008958032910521F482B38B7F82BB0895D7
S11302108132910521F482B3877F82BB08958232B3
S1130220910521F482B38F7E82BB089583329105B8
S113023021F482B38F7D82BB08958432910521F429
S113024082B38F7B82BB0895859709F0E1C082B3A6
S11302508F7782BB0895009721F48BB381608BBBA9
S113026008958130910521F48BB382608BBB08958E
S11302708230910521F48BB384608BBB0895833065
S1130280910521F48BB388608BBB0895843091056C
S113029021F48BB380618BBB08958530910521F4E3
S11302A08BB380628BBB08958630910521F48BB3A8
S11302B080648BBB08958730910521F48BB38068EB
S11302C08BBB08958A30910521F488B3816088BB83
S11302D008958B30910521F488B3826088BB08951A
S11302E08C30910521F488B3846088BB08958D30E7
S11302F0910521F488B3886088BB08958E309105F8
S113030021F488B3806188BB08958F30910521F46E
S113031088B3806288BB08958031910521F488B345
S1130320806488BB08958131910521F488B3806885
S113033088BB08958431910521F485B3816085BB20
S113034008958531910521F485B3826085BB0895B4
S11303508631910521F485B3846085BB0895873186
S1130360910521F485B3886085BB08958831910592
S113037021F485B3806185BB08958931910521F409
S113038085B3806285BB08958A31910521F485B3D4
S1130390806485BB08958B31910521F485B3806811
S11303A085BB08958E31910521F482B3816082BBAF
S11303B008958F31910521F482B3826082BB089540
S11303C08032910521F482B3846082BB0895813226
S11303D0910521F482B3886082BB0895823291052D
S11303E021F482B3806182BB08958332910521F4A4
S11303F082B3806282BB08958432910521F482B372
S1130400806482BB0895859719F482B3806882BBA7
S11304100895CF93C82F80FF07C061E070E082E2A7
S113042090E00E94490006C060E070E082E290E043
S11304300E944900C1FF07C061E070E083E290E0E0
S11304400E94490006C060E070E083E290E00E94F0
S11304504900C2FF07C061E070E084E290E00E94BE
S1130460490006C060E070E084E290E00E94490028
S1130470C3FF07C061E070E085E290E00E9449009C
S113048006C060E070E085E290E00E944900CF91F0
S11304900895CF93C82F60E070E08AE190E00E9455
S11304A049008C2F0E94090261E070E08BE190E02A
S11304B00E94490089EF90E00197F1F700C0000025
S11304C060E070E08BE190E00E94490089EF90E0E9
S11304D00197F1F700C00000CF910895CF938130C8
S11304E099F480E8860F90E0959587959595879582
S11304F09595879595958795C62FCF700E9449024B
S11305008C2F0E94490214C0823091F480EC860F33
S113051090E095958795959587959595879595956B
S11305208795C62FCF700E9449028C2F0E944902E2
S1130530CF91089580E00E94090287E893E1019732
S1130540F1F700C0000083E00E94490281EE94E0CC
S11305500197F1F700C0000083E00E9449028DEB8F
S11305609AE00197F1F700C0000083E00E9449027D
S113057082E00E94490282E00E94490288E00E94CF
S1130580490280E00E9449028CE00E94490280E016
S11305900E94490286E00E9449020895CF93DF93A6
S11305A0D82FDF70C82FC07F61E070E08AE190E04F
S11305B00E9449008C2F90E0959587959595879595
S11305C095958795959587950E94090261E070E05D
S11305D08BE190E00E94490089EF90E00197F1F7E8
S11305E000C0000060E070E08BE190E00E944900F0
S11305F089EF90E00197F1F700C000008D2F0E9471
S1130600090261E070E08BE190E00E94490089EF0B
S113061090E00197F1F700C0000060E070E08BE12A
S113062090E00E94490089EF90E00197F1F700C043
S11306300000DF91CF9108950F931F93CF93DF9321
S11306408C01C0E0D0E0F801EC0FFD1F808188230D
S113065021F00E94CE022196F6CFDF91CF911F9117
S11306600F9108951F920F920FB60F9211248F933A
S11306709F938091CA009091CB0003974CF0809196
S1130680CA009091CB0001979093CB008093CA004D
S11306909F918F910F900FBE0F901F9018951F92EE
S11306A00F920FB60F9211248F939F938091CA00DB
S11306B09091CB000F974CF48091CA009091CB009D
S11306C001969093CB008093CA009F918F910F90D5
S11306D00FBE0F901F9018951F920F920FB60F9296
S11306E011248F939F938091EC009091ED00892BBE
S11306F031F481E090E09093ED008093EC009F91C1
S11307008F910F900FBE0F901F9018952091C000ED
S11307103091C1008091CE009091CF002817390705
S113072049F58091C2009091C300AC014150510938
S11307302091D0003091D1004217530789F02091C5
S1130740D0003091D1008217930761F00196209177
S1130750D0003091D1008217930731F481E005C0B5
S113076081E003C081E001C080E0882331F081E0B2
S113077090E0089580E090E0089580E090E008958E
S11307808FEF8ABB87BB84BB81BBE0ECF0E020E148
S113079030E03183208342E050E053834283EAEB2C
S11307A0F0E081E090E0918380835383428330932F
S11307B0CD002093CC0028E030E03093CB00209390
S11307C0CA009093CF008093CE001092D300109271
S11307D0D2001092E9001092E8000895FB01E1585C
S11307E0FF4F20812093B4008930910554F469307F
S11307F071053CF4FC01E959FF4F80818093B500F9
S113080026C08930910554F0693071053CF4FC012F
S1130810E159FF4F80818093B50019C0893091055B
S113082054F0693071053CF0FC01E959FF4F8081B7
S11308308093B5000CC0893091054CF46930710582
S113084034F0FC01E15AFF4F80818093B5002BBB4B
S11308508091B50088BB0895CF93DF938091CC003D
S11308609091CD00C0ECD0E0998388836091CA0058
S11308707091CB007B836A8302970E94EE0381EE22
S113088094E00197F1F700C000006A817B81615018
S113089071098881998101970E94EE0381EE94E0A9
S11308A00197F1F700C000006A817B8188819981FA
S11308B001970E94EE0381EE94E00197F1F700C0E6
S11308C000006A817B816F5F7F4F888199810197E6
S11308D00E94EE0381EE94E00197F1F700C000005E
S11308E06A817B8161507109888199810E94EE033C
S11308F081EE94E00197F1F700C000006A817B81EA
S1130900888199810E94EE0381EE94E00197F1F7CA
S113091000C000006A817B816F5F7F4F888199816D
S11309200E94EE0381EE94E00197F1F700C000000D
S1130930DF91CF910895CF93DF936091C8007091B8
S1130940C900C6EBD0E07B836A838091C600909196
S1130950C7009983888301970E94EE0383EC99E092
S11309600197F1F700C000006A817B818881998139
S11309700E94EE0383EC99E00197F1F700C00000B8
S1130980DF91CF910895CF93DF932091D0003091E0
S1130990D1008091C8009091C9002817390769F4E3
S11309A02091CE003091CF008091C6009091C70075
S11309B02817390721F080E003C080E001C081E0FE
S11309C08823A1F18091E8009091E9000196909329
S11309D0E9008093E80082E990E00E941C0387EA22
S11309E091E60197F1F700C000008FE990E00E94C2
S11309F01C0387EA91E60197F1F700C0000081E04B
S1130A0090E09093D3008093D2001092CF00109284
S1130A10CE001092D1001092D000C1E0D0E0CF31CE
S1130A20D10524F40E942C042196F9CFDF91CF91B3
S1130A300895CF93DF938091CE009091CF000197DA
S1130A4049F488E090E09093D1008093D00068E06E
S1130A5070E00FC08091CE009091CF00019729F0F3
S1130A606091D0007091D10004C06091D000709169
S1130A70D1008091CE009091CF000E94EE0383ECD0
S1130A8099E00197F1F700C000008091EC0090918B
S1130A90ED00019731F58091EA009091EB00892BEC
S1130AA001F58091CC009091CD0003969093C700FE
S1130AB08093C6008091CA009091CB009093C900A6
S1130AC08093C80081E090E09093EB008093EA006B
S1130AD00E949B0483EC99E00197F1F700C00000A9
S1130AE00AC08091EA009091EB00019721F40E94E2
S1130AF0C3040E949B040E948603892B49F08091C1
S1130B0090009091910001979093910080939000B0
S1130B10C1E0D0E0CB30D10524F40E942C0421960E
S1130B20F9CF8091CE009091CF00409739F481E0C5
S1130B3090E09093CF008093CE0009C08091CE00C6
S1130B409091CF0001969093CF008093CE00809136
S1130B50EA009091EB000197C1F48091C600909156
S1130B60C700019749F41092EB001092EA0010922A
S1130B70ED001092EC0009C08091C6009091C7006E
S1130B8001979093C7008093C600DF91CF91089599
S1130B90CF93DF9385B7836085BF84B7806484BFB8
S1130BA080EE8BBF78940E94C0030E949A028091C9
S1130BB091008F93809190008F93C7E9D0E0DF93E9
S1130BC0CF938EED90E09F938F930E942E06809199
S1130BD0E9008F938091E8008F93DF93CF9384EDA6
S1130BE090E09F938F930E942E0661E081E00E9423
S1130BF06E028AE990E00E941C038EED90E00E9450
S1130C001C0361E082E00E946E0281EA90E00E948F
S1130C101C0384ED90E00E941C030E94190580913E
S1130C209000909191002DB73EB7245F3F4F0FB6CF
S1130C30F8943EBF0FBE2DBF892B09F0B8CF0E9498
S1130C409A0261E082E00E946E0289EA90E00E94CA
S1130C501C0380E090E0DF91CF910895AEE0B0E016
S1130C60E4E3F6E00C94EF080D891E8986E08C839A
S1130C701A8309838FEF9FE79E838D83AE01475EBE
S1130C805F4F6F89788DCE0101960E945006EF81E7
S1130C90F885E00FF11F10822E96E4E00C940B0906
S1130CA0ABE0B0E0E6E5F6E00C94E1086C017B0112
S1130CB08A01FC0117821682838181FFCCC1CE0197
S1130CC001963C01F6019381F70193FD859193FF11
S1130CD081917F01882309F4BAC1853239F493FDE7
S1130CE0859193FF81917F01853229F4B60190E0CB
S1130CF00E944708E7CF912C212C312CFFE1F315FA
S1130D00D8F08B3279F038F4803279F08332A1F460
S1130D10232D20611DC08D3261F0803369F4232DB1
S1130D20216016C0832D8260382EE32DE4603E2EB0
S1130D302AC0F32DF8601DC037FC2DC020ED280F0C
S1130D402A3040F08E32B9F436FC81C1232D206460
S1130D50322E19C036FE06C08AE0989E200D11245A
S1130D60922E11C0EAE02E9E200D1124222EF32D86
S1130D70F0623F2E08C08C3621F4832D8068382E13
S1130D8002C0883641F4F70193FD859193FF819168
S1130D907F018111B3CF982F9F7D9554933028F410
S1130DA00C5F1F4F9FE399830DC0833631F0833767
S1130DB071F0833509F059C021C0F801808189831D
S1130DC00E5F1F4F88248394912C530113C0280174
S1130DD0F2E04F0E511CF801A080B18036FE03C032
S1130DE0692D70E002C06FEF7FEFC5010E943C08DF
S1130DF04C018201F32DFF773F2E16C0280122E01B
S1130E00420E511CF801A080B18036FE03C0692D4A
S1130E1070E002C06FEF7FEFC5010E9431084C0102
S1130E20F32DF0683F2E820133FC1BC0822D90E02D
S1130E3088169906B0F4B60180E290E00E94470853
S1130E402A94F4CFF50137FC859137FE81915F0137
S1130E50B60190E00E94470821102A9421E0821AEA
S1130E6091088114910471F7E8C0843611F0893631
S1130E7041F5F80137FE07C0608171818281938159
S1130E800C5F1F4F08C060817181072E000C880B16
S1130E90990B0E5F1F4FF32DFF763F2E97FF09C06E
S1130EA090958095709561957F4F8F4F9F4FF06817
S1130EB03F2E2AE030E0A3010E948308882E861882
S1130EC045C0853731F4232D2F7EB22E2AE030E041
S1130ED025C0932D997FB92E8F36C1F018F488352B
S1130EE079F0B5C0803719F0883721F0B0C0E92F08
S1130EF0E061BE2EB4FE0DC0FB2DF460BF2E09C010
S1130F0034FE0AC0292F2660B22E06C028E030E045
S1130F1005C020E130E002C020E132E0F801B7FE74
S1130F2007C060817181828193810C5F1F4F06C06D
S1130F306081718180E090E00E5F1F4FA3010E94E9
S1130F408308882E8618FB2DFF773F2E36FE0DC0B2
S1130F50232D2E7FA22E891458F434FE0BC032FCAC
S1130F6009C0832D8E7EA82E05C0B82CA32C03C0E7
S1130F70B82C01C0B92CA4FE0FC0FE01E80DF11D70
S1130F808081803321F49A2D997EA92E09C0A2FE76
S1130F9006C0B394B39404C08A2D867809F0B39440
S1130FA0A3FC11C0A0FE06C0B21488F4280C922C35
S1130FB09B180EC0B21460F4B60180E290E00E9467
S1130FC04708B394F7CFB21418F42B1802C0982C26
S1130FD0212CA4FE10C0B60180E390E00E944708D3
S1130FE0A2FE17C0A1FC03C088E790E002C088E518
S1130FF090E0B6010CC08A2D867859F0A1FE02C09B
S11310008BE201C080E2A7FC8DE2B60190E00E9471
S11310104708891438F4B60180E390E00E94470839
S11310209A94F7CF8A94F301E80DF11D8081B601FB
S113103090E00E9447088110F5CF222009F442CEA7
S1131040B60180E290E00E9447082A94F6CFF601A8
S11310508681978102C08FEF9FEF2B96E2E10C947B
S1131060FD08FC010590615070400110D8F780958F
S113107090958E0F9F1F0895FC0161507040019060
S11310800110D8F7809590958E0F9F1F08950F93A8
S11310901F93CF93DF93FB01238121FD03C08FEFC7
S11310A09FEF2CC022FF16C04681578124813581D1
S11310B04217530744F4A081B1819D012F5F3F4F34
S11310C0318320838C93268137812F5F3F4F378371
S11310D0268314C08B01EC01FB010084F185E02D13
S11310E00995892BE1F6D80116968D919C91179755
S11310F0019617969C938E931697CE01DF91CF910C
S11311001F910F910895FA01AA27283051F1203137
S113111081F1E8946F936E7F6E5F7F4F8F4F9F4F87
S1131120AF4FB1E03ED0B4E03CD0670F781F891FC9
S11311309A1FA11D680F791F8A1F911DA11D6A0F97
S1131140711D811D911DA11D20D009F468943F914A
S11311502AE0269F11243019305D3193DEF6CF0149
S11311600895462F4770405D4193B3E00FD0C9F70F
S1131170F6CF462F4F70405D4A3318F0495D31FD7C
S11311804052419302D0A9F7EACFB4E0A6959795CF
S1131190879577956795BA95C9F7009761057105A5
S11311A008959B01AC010A2E0694579547953795EF
S11311B02795BA95C9F7620F731F841F951FA01D49
S11311C008952F923F924F925F926F927F928F92E7
S11311D09F92AF92BF92CF92DF92EF92FF920F93C2
S11311E01F93CF93DF93CDB7DEB7CA1BDB0B0FB6CC
S11311F0F894DEBF0FBECDBF09942A883988488889
S11312005F846E847D848C849B84AA84B984C8841E
S1131210DF80EE80FD800C811B81AA81B981CE0F15
S1131220D11D0FB6F894DEBF0FBECDBFED010895FA
S1071230F894FFCF5C
S1131234030B131B232B333B020A121A222A323ABE
S113124401091119212931390008101820283038CE
S11312540102040810204080010204081020408088
S1131264050020486974002564004C6966653A20C9
S11312740053636F72653A200047616D65204F76B1
S1071284657200008B
S9030000FC
