:100000000C942A000C9432030C944F030C94470078
:100010000C9447000C9447000C9447000C94470044
:100020000C9447000C9447000C9447000C94470034
:100030000C9447000C9447000C9447000C94470024
:100040000C9447000C9447000C9447000C94470014
:100050000C94470011241FBECFE5D8E0DEBFCDBF12
:1000600010E0A0E6B0E0ECE6F1E102C005900D92F0
:10007000A03BB107D9F720E0A0EBB0E001C01D9292
:10008000A03DB207E1F70E94A2040C94B4080C94BE
:100090000000672B09F0DFC0009721F48BB38E7F3F
:1000A0008BBB08958130910521F48BB38D7F8BBB81
:1000B00008958230910521F48BB38B7F8BBB08951B
:1000C0008330910521F48BB3877F8BBB08958430F7
:1000D000910521F48BB38F7E8BBB089585309105FC
:1000E00021F48BB38F7D8BBB08958630910521F46D
:1000F0008BB38F7B8BBB08958730910521F48BB335
:100100008F778BBB08958A30910521F488B38E7F59
:1001100088BB08958B30910521F488B38D7F88BB0F
:1001200008958C30910521F488B38B7F88BB0895A6
:100130008D30910521F488B3877F88BB08958E3078
:10014000910521F488B38F7E88BB08958F30910587
:1001500021F488B38F7D88BB08958031910521F407
:1001600088B38F7B88BB08958131910521F488B3D2
:100170008F7788BB08958431910521F485B38E7FF4
:1001800085BB08958531910521F485B38D7F85BBAD
:1001900008958631910521F485B38B7F85BB089541
:1001A0008731910521F485B3877F85BB0895883118
:1001B000910521F485B38F7E85BB08958931910522
:1001C00021F485B38F7D85BB08958A31910521F493
:1001D00085B38F7B85BB08958B31910521F485B361
:1001E0008F7785BB08958E31910521F482B38E7F80
:1001F00082BB08958F31910521F482B38D7F82BB3C
:1002000008958032910521F482B38B7F82BB0895DB
:100210008132910521F482B3877F82BB08958232B7
:10022000910521F482B38F7E82BB089583329105BC
:1002300021F482B38F7D82BB08958432910521F42D
:1002400082B38F7B82BB0895859709F0E1C082B3AA
:100250008F7782BB0895009721F48BB381608BBBAD
:1002600008958130910521F48BB382608BBB089592
:100270008230910521F48BB384608BBB0895833069
:10028000910521F48BB388608BBB08958430910570
:1002900021F48BB380618BBB08958530910521F4E7
:1002A0008BB380628BBB08958630910521F48BB3AC
:1002B00080648BBB08958730910521F48BB38068EF
:1002C0008BBB08958A30910521F488B3816088BB87
:1002D00008958B30910521F488B3826088BB08951E
:1002E0008C30910521F488B3846088BB08958D30EB
:1002F000910521F488B3886088BB08958E309105FC
:1003000021F488B3806188BB08958F30910521F472
:1003100088B3806288BB08958031910521F488B349
:10032000806488BB08958131910521F488B3806889
:1003300088BB08958431910521F485B3816085BB24
:1003400008958531910521F485B3826085BB0895B8
:100350008631910521F485B3846085BB089587318A
:10036000910521F485B3886085BB08958831910596
:1003700021F485B3806185BB08958931910521F40D
:1003800085B3806285BB08958A31910521F485B3D8
:10039000806485BB08958B31910521F485B3806815
:1003A00085BB08958E31910521F482B3816082BBB3
:1003B00008958F31910521F482B3826082BB089544
:1003C0008032910521F482B3846082BB089581322A
:1003D000910521F482B3886082BB08958232910531
:1003E00021F482B3806182BB08958332910521F4A8
:1003F00082B3806282BB08958432910521F482B376
:10040000806482BB0895859719F482B3806882BBAB
:100410000895CF93C82F80FF07C061E070E082E2AB
:1004200090E00E94490006C060E070E082E290E047
:100430000E944900C1FF07C061E070E083E290E0E4
:100440000E94490006C060E070E083E290E00E94F4
:100450004900C2FF07C061E070E084E290E00E94C2
:10046000490006C060E070E084E290E00E9449002C
:10047000C3FF07C061E070E085E290E00E944900A0
:1004800006C060E070E085E290E00E944900CF91F4
:100490000895CF93C82F60E070E08AE190E00E9459
:1004A00049008C2F0E94090261E070E08BE190E02E
:1004B0000E94490089EF90E00197F1F700C0000029
:1004C00060E070E08BE190E00E94490089EF90E0ED
:1004D0000197F1F700C00000CF910895CF938130CC
:1004E00099F480E8860F90E0959587959595879586
:1004F0009595879595958795C62FCF700E9449024F
:100500008C2F0E94490214C0823091F480EC860F37
:1005100090E095958795959587959595879595956F
:100520008795C62FCF700E9449028C2F0E944902E6
:10053000CF91089580E00E94090287E893E1019736
:10054000F1F700C0000083E00E94490281EE94E0D0
:100550000197F1F700C0000083E00E9449028DEB93
:100560009AE00197F1F700C0000083E00E94490281
:1005700082E00E94490282E00E94490288E00E94D3
:10058000490280E00E9449028CE00E94490280E01A
:100590000E94490286E00E9449020895CF93DF93AA
:1005A000D82FDF70C82FC07F61E070E08AE190E053
:1005B0000E9449008C2F90E0959587959595879599
:1005C00095958795959587950E94090261E070E061
:1005D0008BE190E00E94490089EF90E00197F1F7EC
:1005E00000C0000060E070E08BE190E00E944900F4
:1005F00089EF90E00197F1F700C000008D2F0E9475
:10060000090261E070E08BE190E00E94490089EF0F
:1006100090E00197F1F700C0000060E070E08BE12E
:1006200090E00E94490089EF90E00197F1F700C047
:100630000000DF91CF9108950F931F93CF93DF9325
:100640008C01C0E0D0E0F801EC0FFD1F8081882311
:1006500021F00E94CE022196F6CFDF91CF911F911B
:100660000F9108951F920F920FB60F9211248F933E
:100670009F938091BE009091BF0003974CF08091B2
:10068000BE009091BF0001979093BF008093BE0081
:100690009F918F910F900FBE0F901F9018951F92F2
:1006A0000F920FB60F9211248F939F938091BE00EB
:1006B0009091BF000F974CF48091BE009091BF00C5
:1006C00001969093BF008093BE009F918F910F90F1
:1006D0000FBE0F901F9018952091B8003091B9006F
:1006E0008091C2009091C3002817390749F5809185
:1006F000BA009091BB00AC01415051092091C40057
:100700003091C5004217530789F02091C400309101
:10071000C5008217930761F001962091C4003091C3
:10072000C5008217930731F481E005C081E003C062
:1007300081E001C080E0882331F081E090E00895FD
:1007400080E090E0089580E090E008958FEF8ABB0C
:1007500087BB84BB81BBE8EBF0E040E150E0518314
:10076000408382E090E093838283E2EBF0E021E03B
:1007700030E031832083938382835093C100409380
:10078000C0009093BF008093BE003093C3002093BD
:10079000C2000895FB01ED57FF4F20812093B00068
:1007A0008930910554F4693071053CF4FC01E55938
:1007B000FF4F80818093B10026C08930910554F0AD
:1007C000693071053CF4FC01ED58FF4F8081809346
:1007D000B10019C08930910554F0693071053CF0C1
:1007E000FC01E559FF4F80818093B1000CC0893036
:1007F00091054CF46930710534F0FC01ED59FF4F5F
:1008000080818093B1002BBB8091B10088BB08959B
:10081000CF93DF938091C0009091C100C8EBD0E0EE
:10082000998388836091BE007091BF007B836A8347
:10083000615071090E94CA0381EE94E00197F1F7BB
:1008400000C000006A817B81888199810E94CA036F
:1008500081EE94E00197F1F700C000006A817B818E
:100860006F5F7F4F888199810E94CA0381EE94E077
:100870000197F1F700C00000DF91CF910895CF9369
:10088000DF938091C2009091C300019759F40E94B8
:10089000570561E170E00E94E30401969093C50062
:1008A0008093C4008091C2009091C300019729F009
:1008B0006091C4007091C50004C06091C400709143
:1008C000C5008091C2009091C3000E94CA030E949B
:1008D0006C03892B49F080919400909195000197C9
:1008E0009093950080939400C1E0D0E0CA30D10588
:1008F00084F481EE94E00197F1F700C000000E94BB
:10090000080481EE94E00197F1F700C00000219601
:10091000EDCF8091C2009091C300409739F481E0FF
:1009200090E09093C3008093C20009C08091C20000
:100930009091C30001969093C3008093C200DF9111
:10094000CF91089585B7836085BF80EC8BBF789485
:100950000E94A6030E949A02809195008F93809135
:1009600094008F9386E990E09F938F9386EC90E0BC
:100970009F938F930E94670561E081E00E946E0261
:1009800089E990E00E941C0386EC90E00E941C0321
:100990000E943F0480919400909195000F900F90D9
:1009A0000F900F900F900F90892BB1F60E949A0232
:1009B00061E082E00E946E0286EA90E00E941C03E1
:1009C00080E090E0089597FB072E16F4009407D07E
:1009D00077FD09D00E94F70407FC05D03EF49095FE
:1009E00081959F4F0895709561957F4F0895AA1B3B
:1009F000BB1B51E107C0AA1FBB1FA617B70710F00A
:100A0000A61BB70B881F991F5A95A9F7809590953B
:100A1000BC01CD0108958F929F92AF92BF92CF9269
:100A2000DF92EF92FF92CF93DF93EC01688179819F
:100A30008A819B81611571058105910521F464E22C
:100A400079ED8BE597E02DE133EF41E050E00E9436
:100A50001A0849015A019B01AC01A7EAB1E40E94BE
:100A600039086B017C01ACEEB4EFA50194010E9442
:100A70004708DC01CB018C0D9D1DAE1DBF1DB7FFCE
:100A800003C00197A109B04888839983AA83BB83D7
:100A90009F77DF91CF91FF90EF90DF90CF90BF9045
:100AA000AF909F908F9008950E940B05089580E667
:100AB00090E00E940B050895A0E0B0E080936000F4
:100AC00090936100A0936200B09363000895AEE03C
:100AD000B0E0EDE6F5E00C945A080D891E8986E039
:100AE0008C831A8309838FEF9FE79E838D83AE01EA
:100AF000475E5F4F6F89788DCE0101960E94890510
:100B0000EF81F885E00FF11F10822E96E4E00C943F
:100B10007608ABE0B0E0EFE8F5E00C944C086C012F
:100B20007B018A01FC0117821682838181FFCCC17F
:100B3000CE0101963C01F6019381F70193FD859169
:100B400093FF81917F01882309F4BAC1853239F47A
:100B500093FD859193FF81917F01853229F4B60140
:100B600090E00E948007E7CF912C212C312CFFE1EF
:100B7000F315D8F08B3279F038F4803279F0833283
:100B8000A1F4232D20611DC08D3261F0803369F402
:100B9000232D216016C0832D8260382EE32DE46062
:100BA0003E2E2AC0F32DF8601DC037FC2DC020ED6D
:100BB000280F2A3040F08E32B9F436FC81C1232D43
:100BC0002064322E19C036FE06C08AE0989E200DA1
:100BD0001124922E11C0EAE02E9E200D1124222E07
:100BE000F32DF0623F2E08C08C3621F4832D8068EF
:100BF000382E02C0883641F4F70193FD859193FFAA
:100C000081917F018111B3CF982F9F7D95549330AF
:100C100028F40C5F1F4F9FE399830DC0833631F09A
:100C2000833771F0833509F059C021C0F801808104
:100C300089830E5F1F4F88248394912C530113C026
:100C40002801F2E04F0E511CF801A080B18036FE61
:100C500003C0692D70E002C06FEF7FEFC5010E94F5
:100C600075074C018201F32DFF773F2E16C0280136
:100C700022E0420E511CF801A080B18036FE03C074
:100C8000692D70E002C06FEF7FEFC5010E946A0717
:100C90004C01F32DF0683F2E820133FC1BC0822DE6
:100CA00090E088169906B0F4B60180E290E00E94C8
:100CB00080072A94F4CFF50137FC859137FE8191A6
:100CC0005F01B60190E00E94800721102A9421E084
:100CD000821A91088114910471F7E8C0843611F0EA
:100CE000893641F5F80137FE07C060817181828144
:100CF00093810C5F1F4F08C060817181072E000C2B
:100D0000880B990B0E5F1F4FF32DFF763F2E97FF39
:100D100009C090958095709561957F4F8F4F9F4F3B
:100D2000F0683F2E2AE030E0A3010E94BC07882E25
:100D3000861845C0853731F4232D2F7EB22E2AE048
:100D400030E025C0932D997FB92E8F36C1F018F46D
:100D5000883579F0B5C0803719F0883721F0B0C0F8
:100D6000E92FE061BE2EB4FE0DC0FB2DF460BF2E56
:100D700009C034FE0AC0292F2660B22E06C028E022
:100D800030E005C020E130E002C020E132E0F801AF
:100D9000B7FE07C060817181828193810C5F1F4F14
:100DA00006C06081718180E090E00E5F1F4FA3015B
:100DB0000E94BC07882E8618FB2DFF773F2E36FE3B
:100DC0000DC0232D2E7FA22E891458F434FE0BC0A3
:100DD00032FC09C0832D8E7EA82E05C0B82CA32C12
:100DE00003C0B82C01C0B92CA4FE0FC0FE01E80D51
:100DF000F11D8081803321F49A2D997EA92E09C09E
:100E0000A2FE06C0B394B39404C08A2D867809F07C
:100E1000B394A3FC11C0A0FE06C0B21488F4280C41
:100E2000922C9B180EC0B21460F4B60180E290E0E0
:100E30000E948007B394F7CFB21418F42B1802C0A5
:100E4000982C212CA4FE10C0B60180E390E00E94F3
:100E50008007A2FE17C0A1FC03C088E790E002C093
:100E600088E590E0B6010CC08A2D867859F0A1FE85
:100E700002C08BE201C080E2A7FC8DE2B60190E0E7
:100E80000E948007891438F4B60180E390E00E9444
:100E900080079A94F7CF8A94F301E80DF11D8081C1
:100EA000B60190E00E9480078110F5CF222009F45E
:100EB00042CEB60180E290E00E9480072A94F6CFED
:100EC000F6018681978102C08FEF9FEF2B96E2E1BA
:100ED0000C946808FC010590615070400110D8F72F
:100EE000809590958E0F9F1F0895FC016150704072
:100EF00001900110D8F7809590958E0F9F1F08954F
:100F00000F931F93CF93DF93FB01238121FD03C038
:100F10008FEF9FEF2CC022FF16C04681578124819E
:100F200035814217530744F4A081B1819D012F5FA1
:100F30003F4F318320838C93268137812F5F3F4F32
:100F40003783268314C08B01EC01FB010084F185FB
:100F5000E02D0995892BE1F6D80116968D919C918B
:100F60001797019617969C938E931697CE01DF9153
:100F7000CF911F910F910895FA01AA27283051F1BE
:100F8000203181F1E8946F936E7F6E5F7F4F8F4FBA
:100F90009F4FAF4FB1E03ED0B4E03CD0670F781F19
:100FA000891F9A1FA11D680F791F8A1F911DA11DFE
:100FB0006A0F711D811D911DA11D20D009F4689437
:100FC0003F912AE0269F11243019305D3193DEF6DF
:100FD000CF010895462F4770405D4193B3E00FD095
:100FE000C9F7F6CF462F4F70405D4A3318F0495D80
:100FF00031FD4052419302D0A9F7EACFB4E0A69563
:101000009795879577956795BA95C9F70097610584
:10101000710508959B01AC010A2E069457954795DA
:1010200037952795BA95C9F7620F731F841F951FCF
:10103000A01D0895052E97FB1EF400940E94310810
:1010400057FD07D00E94830807FC03D04EF40C9490
:10105000310850954095309521953F4F4F4F5F4F48
:10106000089590958095709561957F4F8F4F9F4F14
:1010700008950E94A508A59F900DB49F900DA49F70
:10108000800D911D11240895B7FF0C9439080E941A
:101090003908821B930B08952F923F924F925F92D3
:1010A0006F927F928F929F92AF92BF92CF92DF9278
:1010B000EF92FF920F931F93CF93DF93CDB7DEB7DD
:1010C000CA1BDB0B0FB6F894DEBF0FBECDBF099471
:1010D0002A88398848885F846E847D848C849B84C8
:1010E000AA84B984C884DF80EE80FD800C811B81D6
:1010F000AA81B981CE0FD11D0FB6F894DEBF0FBE05
:10110000CDBFED010895A1E21A2EAA1BBB1BFD0164
:101110000DC0AA1FBB1FEE1FFF1FA217B307E407D6
:10112000F50720F0A21BB30BE40BF50B661F771F2E
:10113000881F991F1A9469F760957095809590950E
:101140009B01AC01BD01CF010895A29FB001B39FE7
:10115000C001A39F700D811D1124911DB29F700DC0
:0C116000811D1124911D0895F894FFCF0B
:10116C0001000000030B131B232B333B020A121A42
:10117C00222A323A01091119212931390008101893
:10118C002028303801020408102040800102040895
:10119C001020408005002564004C696665206C6554
:1011AC006674203A200047616D65204F76657200A9
:00000001FF
